{
  "_format": "hh-sol-artifact-1",
  "contractName": "NFTMarketplace",
  "sourceName": "contracts/NFTMarketplace.sol",
  "abi": [
    {
      "inputs": [],
      "stateMutability": "nonpayable",
      "type": "constructor"
    },
    {
      "anonymous": false,
      "inputs": [
        {
          "indexed": true,
          "internalType": "address",
          "name": "owner",
          "type": "address"
        },
        {
          "indexed": true,
          "internalType": "address",
          "name": "approved",
          "type": "address"
        },
        {
          "indexed": true,
          "internalType": "uint256",
          "name": "tokenId",
          "type": "uint256"
        }
      ],
      "name": "Approval",
      "type": "event"
    },
    {
      "anonymous": false,
      "inputs": [
        {
          "indexed": true,
          "internalType": "address",
          "name": "owner",
          "type": "address"
        },
        {
          "indexed": true,
          "internalType": "address",
          "name": "operator",
          "type": "address"
        },
        {
          "indexed": false,
          "internalType": "bool",
          "name": "approved",
          "type": "bool"
        }
      ],
      "name": "ApprovalForAll",
      "type": "event"
    },
    {
      "anonymous": false,
      "inputs": [
        {
          "indexed": false,
          "internalType": "uint256",
          "name": "_fromTokenId",
          "type": "uint256"
        },
        {
          "indexed": false,
          "internalType": "uint256",
          "name": "_toTokenId",
          "type": "uint256"
        }
      ],
      "name": "BatchMetadataUpdate",
      "type": "event"
    },
    {
      "anonymous": false,
      "inputs": [
        {
          "indexed": false,
          "internalType": "uint256",
          "name": "_tokenId",
          "type": "uint256"
        }
      ],
      "name": "MetadataUpdate",
      "type": "event"
    },
    {
      "anonymous": false,
      "inputs": [
        {
          "indexed": true,
          "internalType": "address",
          "name": "from",
          "type": "address"
        },
        {
          "indexed": true,
          "internalType": "address",
          "name": "to",
          "type": "address"
        },
        {
          "indexed": true,
          "internalType": "uint256",
          "name": "tokenId",
          "type": "uint256"
        }
      ],
      "name": "Transfer",
      "type": "event"
    },
    {
      "inputs": [],
      "name": "MINTING_FEE",
      "outputs": [
        {
          "internalType": "uint256",
          "name": "",
          "type": "uint256"
        }
      ],
      "stateMutability": "view",
      "type": "function"
    },
    {
      "inputs": [
        {
          "internalType": "address",
          "name": "to",
          "type": "address"
        },
        {
          "internalType": "uint256",
          "name": "tokenId",
          "type": "uint256"
        }
      ],
      "name": "approve",
      "outputs": [],
      "stateMutability": "nonpayable",
      "type": "function"
    },
    {
      "inputs": [
        {
          "internalType": "uint256",
          "name": "_tokenId",
          "type": "uint256"
        },
        {
          "internalType": "uint256",
          "name": "_basePrice",
          "type": "uint256"
        },
        {
          "internalType": "uint256",
          "name": "_days",
          "type": "uint256"
        }
      ],
      "name": "auctionToken",
      "outputs": [],
      "stateMutability": "payable",
      "type": "function"
    },
    {
      "inputs": [
        {
          "internalType": "address",
          "name": "owner",
          "type": "address"
        }
      ],
      "name": "balanceOf",
      "outputs": [
        {
          "internalType": "uint256",
          "name": "",
          "type": "uint256"
        }
      ],
      "stateMutability": "view",
      "type": "function"
    },
    {
      "inputs": [
        {
          "internalType": "uint256",
          "name": "_tokenId",
          "type": "uint256"
        }
      ],
      "name": "buyToken",
      "outputs": [],
      "stateMutability": "payable",
      "type": "function"
    },
    {
      "inputs": [],
      "name": "checkTokenAuction",
      "outputs": [],
      "stateMutability": "nonpayable",
      "type": "function"
    },
    {
      "inputs": [],
      "name": "fetchAuctionedTokens",
      "outputs": [
        {
          "components": [
            {
              "internalType": "uint256",
              "name": "tokenId",
              "type": "uint256"
            },
            {
              "internalType": "uint256",
              "name": "startTime",
              "type": "uint256"
            },
            {
              "internalType": "uint256",
              "name": "endTime",
              "type": "uint256"
            },
            {
              "internalType": "uint256",
              "name": "basePrice",
              "type": "uint256"
            },
            {
              "internalType": "uint256",
              "name": "lastBidPrice",
              "type": "uint256"
            }
          ],
          "internalType": "struct NFTMarketplace.AuctionToken[]",
          "name": "",
          "type": "tuple[]"
        }
      ],
      "stateMutability": "view",
      "type": "function"
    },
    {
      "inputs": [],
      "name": "fetchListedTokens",
      "outputs": [
        {
          "components": [
            {
              "internalType": "uint256",
              "name": "tokenId",
              "type": "uint256"
            },
            {
              "internalType": "uint256",
              "name": "price",
              "type": "uint256"
            },
            {
              "internalType": "uint256",
              "name": "approvedStatus",
              "type": "uint256"
            },
            {
              "internalType": "address payable",
              "name": "seller",
              "type": "address"
            },
            {
              "internalType": "address payable",
              "name": "creator",
              "type": "address"
            },
            {
              "internalType": "bool",
              "name": "isAuctioned",
              "type": "bool"
            }
          ],
          "internalType": "struct NFTMarketplace.MintedToken[]",
          "name": "",
          "type": "tuple[]"
        }
      ],
      "stateMutability": "view",
      "type": "function"
    },
    {
      "inputs": [],
      "name": "fetchMarketTokens",
      "outputs": [
        {
          "components": [
            {
              "internalType": "uint256",
              "name": "tokenId",
              "type": "uint256"
            },
            {
              "internalType": "uint256",
              "name": "price",
              "type": "uint256"
            },
            {
              "internalType": "uint256",
              "name": "approvedStatus",
              "type": "uint256"
            },
            {
              "internalType": "address payable",
              "name": "seller",
              "type": "address"
            },
            {
              "internalType": "address payable",
              "name": "creator",
              "type": "address"
            },
            {
              "internalType": "bool",
              "name": "isAuctioned",
              "type": "bool"
            }
          ],
          "internalType": "struct NFTMarketplace.MintedToken[]",
          "name": "",
          "type": "tuple[]"
        }
      ],
      "stateMutability": "view",
      "type": "function"
    },
    {
      "inputs": [],
      "name": "fetchOwnedTokens",
      "outputs": [
        {
          "components": [
            {
              "internalType": "uint256",
              "name": "tokenId",
              "type": "uint256"
            },
            {
              "internalType": "uint256",
              "name": "price",
              "type": "uint256"
            },
            {
              "internalType": "uint256",
              "name": "approvedStatus",
              "type": "uint256"
            },
            {
              "internalType": "address payable",
              "name": "seller",
              "type": "address"
            },
            {
              "internalType": "address payable",
              "name": "creator",
              "type": "address"
            },
            {
              "internalType": "bool",
              "name": "isAuctioned",
              "type": "bool"
            }
          ],
          "internalType": "struct NFTMarketplace.MintedToken[]",
          "name": "",
          "type": "tuple[]"
        }
      ],
      "stateMutability": "view",
      "type": "function"
    },
    {
      "inputs": [],
      "name": "fetchTokensForApproval",
      "outputs": [
        {
          "components": [
            {
              "internalType": "uint256",
              "name": "tokenId",
              "type": "uint256"
            },
            {
              "internalType": "uint256",
              "name": "price",
              "type": "uint256"
            },
            {
              "internalType": "uint256",
              "name": "approvedStatus",
              "type": "uint256"
            },
            {
              "internalType": "address payable",
              "name": "seller",
              "type": "address"
            },
            {
              "internalType": "address payable",
              "name": "creator",
              "type": "address"
            },
            {
              "internalType": "bool",
              "name": "isAuctioned",
              "type": "bool"
            }
          ],
          "internalType": "struct NFTMarketplace.MintedToken[]",
          "name": "",
          "type": "tuple[]"
        }
      ],
      "stateMutability": "view",
      "type": "function"
    },
    {
      "inputs": [
        {
          "internalType": "uint256",
          "name": "tokenId",
          "type": "uint256"
        }
      ],
      "name": "getApproved",
      "outputs": [
        {
          "internalType": "address",
          "name": "",
          "type": "address"
        }
      ],
      "stateMutability": "view",
      "type": "function"
    },
    {
      "inputs": [],
      "name": "i_owner",
      "outputs": [
        {
          "internalType": "address",
          "name": "",
          "type": "address"
        }
      ],
      "stateMutability": "view",
      "type": "function"
    },
    {
      "inputs": [
        {
          "internalType": "address",
          "name": "owner",
          "type": "address"
        },
        {
          "internalType": "address",
          "name": "operator",
          "type": "address"
        }
      ],
      "name": "isApprovedForAll",
      "outputs": [
        {
          "internalType": "bool",
          "name": "",
          "type": "bool"
        }
      ],
      "stateMutability": "view",
      "type": "function"
    },
    {
      "inputs": [
        {
          "internalType": "uint256",
          "name": "_price",
          "type": "uint256"
        },
        {
          "internalType": "string",
          "name": "_tokenURI",
          "type": "string"
        }
      ],
      "name": "mintToken",
      "outputs": [],
      "stateMutability": "payable",
      "type": "function"
    },
    {
      "inputs": [],
      "name": "name",
      "outputs": [
        {
          "internalType": "string",
          "name": "",
          "type": "string"
        }
      ],
      "stateMutability": "view",
      "type": "function"
    },
    {
      "inputs": [
        {
          "internalType": "uint256",
          "name": "tokenId",
          "type": "uint256"
        }
      ],
      "name": "ownerOf",
      "outputs": [
        {
          "internalType": "address",
          "name": "",
          "type": "address"
        }
      ],
      "stateMutability": "view",
      "type": "function"
    },
    {
      "inputs": [
        {
          "internalType": "uint256",
          "name": "_tokenId",
          "type": "uint256"
        },
        {
          "internalType": "uint256",
          "name": "_price",
          "type": "uint256"
        }
      ],
      "name": "placeBids",
      "outputs": [],
      "stateMutability": "payable",
      "type": "function"
    },
    {
      "inputs": [
        {
          "internalType": "uint256",
          "name": "_tokenId",
          "type": "uint256"
        },
        {
          "internalType": "uint256",
          "name": "_price",
          "type": "uint256"
        }
      ],
      "name": "reSellToken",
      "outputs": [],
      "stateMutability": "payable",
      "type": "function"
    },
    {
      "inputs": [
        {
          "internalType": "uint256",
          "name": "_tokenId",
          "type": "uint256"
        }
      ],
      "name": "removeTokenListing",
      "outputs": [],
      "stateMutability": "nonpayable",
      "type": "function"
    },
    {
      "inputs": [
        {
          "internalType": "address",
          "name": "from",
          "type": "address"
        },
        {
          "internalType": "address",
          "name": "to",
          "type": "address"
        },
        {
          "internalType": "uint256",
          "name": "tokenId",
          "type": "uint256"
        }
      ],
      "name": "safeTransferFrom",
      "outputs": [],
      "stateMutability": "nonpayable",
      "type": "function"
    },
    {
      "inputs": [
        {
          "internalType": "address",
          "name": "from",
          "type": "address"
        },
        {
          "internalType": "address",
          "name": "to",
          "type": "address"
        },
        {
          "internalType": "uint256",
          "name": "tokenId",
          "type": "uint256"
        },
        {
          "internalType": "bytes",
          "name": "data",
          "type": "bytes"
        }
      ],
      "name": "safeTransferFrom",
      "outputs": [],
      "stateMutability": "nonpayable",
      "type": "function"
    },
    {
      "inputs": [
        {
          "internalType": "address",
          "name": "operator",
          "type": "address"
        },
        {
          "internalType": "bool",
          "name": "approved",
          "type": "bool"
        }
      ],
      "name": "setApprovalForAll",
      "outputs": [],
      "stateMutability": "nonpayable",
      "type": "function"
    },
    {
      "inputs": [
        {
          "internalType": "bytes4",
          "name": "interfaceId",
          "type": "bytes4"
        }
      ],
      "name": "supportsInterface",
      "outputs": [
        {
          "internalType": "bool",
          "name": "",
          "type": "bool"
        }
      ],
      "stateMutability": "view",
      "type": "function"
    },
    {
      "inputs": [],
      "name": "symbol",
      "outputs": [
        {
          "internalType": "string",
          "name": "",
          "type": "string"
        }
      ],
      "stateMutability": "view",
      "type": "function"
    },
    {
      "inputs": [
        {
          "internalType": "uint256",
          "name": "tokenId",
          "type": "uint256"
        }
      ],
      "name": "tokenURI",
      "outputs": [
        {
          "internalType": "string",
          "name": "",
          "type": "string"
        }
      ],
      "stateMutability": "view",
      "type": "function"
    },
    {
      "inputs": [
        {
          "internalType": "address",
          "name": "from",
          "type": "address"
        },
        {
          "internalType": "address",
          "name": "to",
          "type": "address"
        },
        {
          "internalType": "uint256",
          "name": "tokenId",
          "type": "uint256"
        }
      ],
      "name": "transferFrom",
      "outputs": [],
      "stateMutability": "nonpayable",
      "type": "function"
    },
    {
      "inputs": [
        {
          "internalType": "uint256",
          "name": "_tokenId",
          "type": "uint256"
        },
        {
          "internalType": "uint256",
          "name": "_statusValue",
          "type": "uint256"
        }
      ],
      "name": "updateTokenStatus",
      "outputs": [],
      "stateMutability": "nonpayable",
      "type": "function"
    },
    {
      "inputs": [
        {
          "internalType": "uint256",
          "name": "_amount",
          "type": "uint256"
        }
      ],
      "name": "withdraw",
      "outputs": [],
      "stateMutability": "nonpayable",
      "type": "function"
    }
  ],
  "bytecode": "0x60a06040523480156200001157600080fd5b506040518060400160405280600781526020017f414b546f6b656e000000000000000000000000000000000000000000000000008152506040518060400160405280600281526020017f414b00000000000000000000000000000000000000000000000000000000000081525081600090816200008f91906200036e565b508060019081620000a191906200036e565b5050503373ffffffffffffffffffffffffffffffffffffffff1660808173ffffffffffffffffffffffffffffffffffffffff168152505061070842620000e8919062000484565b600b81905550620004bf565b600081519050919050565b7f4e487b7100000000000000000000000000000000000000000000000000000000600052604160045260246000fd5b7f4e487b7100000000000000000000000000000000000000000000000000000000600052602260045260246000fd5b600060028204905060018216806200017657607f821691505b6020821081036200018c576200018b6200012e565b5b50919050565b60008190508160005260206000209050919050565b60006020601f8301049050919050565b600082821b905092915050565b600060088302620001f67fffffffffffffffffffffffffffffffffffffffffffffffffffffffffffffffff82620001b7565b620002028683620001b7565b95508019841693508086168417925050509392505050565b6000819050919050565b6000819050919050565b60006200024f6200024962000243846200021a565b62000224565b6200021a565b9050919050565b6000819050919050565b6200026b836200022e565b620002836200027a8262000256565b848454620001c4565b825550505050565b600090565b6200029a6200028b565b620002a781848462000260565b505050565b5b81811015620002cf57620002c360008262000290565b600181019050620002ad565b5050565b601f8211156200031e57620002e88162000192565b620002f384620001a7565b8101602085101562000303578190505b6200031b6200031285620001a7565b830182620002ac565b50505b505050565b600082821c905092915050565b6000620003436000198460080262000323565b1980831691505092915050565b60006200035e838362000330565b9150826002028217905092915050565b6200037982620000f4565b67ffffffffffffffff811115620003955762000394620000ff565b5b620003a182546200015d565b620003ae828285620002d3565b600060209050601f831160018114620003e65760008415620003d1578287015190505b620003dd858262000350565b8655506200044d565b601f198416620003f68662000192565b60005b828110156200042057848901518255600182019150602085019450602081019050620003f9565b868310156200044057848901516200043c601f89168262000330565b8355505b6001600288020188555050505b505050505050565b7f4e487b7100000000000000000000000000000000000000000000000000000000600052601160045260246000fd5b600062000491826200021a565b91506200049e836200021a565b9250828201905080821115620004b957620004b862000455565b5b92915050565b6080516152bb620004f760003960008181610b4d01528181610ba501528181611b1f01528181612415015261248c01526152bb6000f3fe6080604052600436106101c25760003560e01c80638a37dc35116100f7578063c87b56dd11610095578063dba6335f11610064578063dba6335f146105e5578063e985e9c514610610578063f801e7c31461064d578063fe678f9c14610678576101c2565b8063c87b56dd14610538578063cee4b5dd14610575578063d642b4b114610591578063db90b6ca146105bc576101c2565b8063b51d045a116100d1578063b51d045a14610490578063b88d4fde146104b9578063c27b1b25146104e2578063c69bdf751461050d576101c2565b80638a37dc351461042557806395d89b411461043c578063a22cb46514610467576101c2565b80633d9586fc1161016457806370a082311161013e57806370a082311461038557806372b8ae94146103c2578063752312a9146103ed57806385535b2514610409576101c2565b80633d9586fc1461030357806342842e0e1461031f5780636352211e14610348576101c2565b8063095ea7b3116101a0578063095ea7b31461026c57806323b872dd146102955780632d296bf1146102be5780632e1a7d4d146102da576101c2565b806301ffc9a7146101c757806306fdde0314610204578063081812fc1461022f575b600080fd5b3480156101d357600080fd5b506101ee60048036038101906101e99190613cd2565b6106a3565b6040516101fb9190613d1a565b60405180910390f35b34801561021057600080fd5b50610219610704565b6040516102269190613dc5565b60405180910390f35b34801561023b57600080fd5b5061025660048036038101906102519190613e1d565b610796565b6040516102639190613e8b565b60405180910390f35b34801561027857600080fd5b50610293600480360381019061028e9190613ed2565b6107dc565b005b3480156102a157600080fd5b506102bc60048036038101906102b79190613f12565b6108f3565b005b6102d860048036038101906102d39190613e1d565b610953565b005b3480156102e657600080fd5b5061030160048036038101906102fc9190613e1d565b610b4b565b005b61031d60048036038101906103189190613f65565b610c0d565b005b34801561032b57600080fd5b5061034660048036038101906103419190613f12565b610de9565b005b34801561035457600080fd5b5061036f600480360381019061036a9190613e1d565b610e09565b60405161037c9190613e8b565b60405180910390f35b34801561039157600080fd5b506103ac60048036038101906103a79190613fa5565b610e8f565b6040516103b99190613fe1565b60405180910390f35b3480156103ce57600080fd5b506103d7610f46565b6040516103e49190614165565b60405180910390f35b610407600480360381019061040291906142bc565b61116c565b005b610423600480360381019061041e9190613f65565b611313565b005b34801561043157600080fd5b5061043a6113f2565b005b34801561044857600080fd5b506104516118cc565b60405161045e9190613dc5565b60405180910390f35b34801561047357600080fd5b5061048e60048036038101906104899190614344565b61195e565b005b34801561049c57600080fd5b506104b760048036038101906104b29190613e1d565b611974565b005b3480156104c557600080fd5b506104e060048036038101906104db9190614425565b611ab9565b005b3480156104ee57600080fd5b506104f7611b1b565b6040516105049190614165565b60405180910390f35b34801561051957600080fd5b50610522611de5565b60405161052f9190614165565b60405180910390f35b34801561054457600080fd5b5061055f600480360381019061055a9190613e1d565b61213b565b60405161056c9190613dc5565b60405180910390f35b61058f600480360381019061058a91906144a8565b61224d565b005b34801561059d57600080fd5b506105a6612408565b6040516105b39190613fe1565b60405180910390f35b3480156105c857600080fd5b506105e360048036038101906105de9190613f65565b612413565b005b3480156105f157600080fd5b506105fa61248a565b6040516106079190613e8b565b60405180910390f35b34801561061c57600080fd5b50610637600480360381019061063291906144fb565b6124ae565b6040516106449190613d1a565b60405180910390f35b34801561065957600080fd5b50610662612542565b60405161066f9190614165565b60405180910390f35b34801561068457600080fd5b5061068d612922565b60405161069a9190614652565b60405180910390f35b6000634906490660e01b7bffffffffffffffffffffffffffffffffffffffffffffffffffffffff1916827bffffffffffffffffffffffffffffffffffffffffffffffffffffffff191614806106fd57506106fc82612b81565b5b9050919050565b606060008054610713906146a3565b80601f016020809104026020016040519081016040528092919081815260200182805461073f906146a3565b801561078c5780601f106107615761010080835404028352916020019161078c565b820191906000526020600020905b81548152906001019060200180831161076f57829003601f168201915b5050505050905090565b60006107a182612c63565b6004600083815260200190815260200160002060009054906101000a900473ffffffffffffffffffffffffffffffffffffffff169050919050565b60006107e782610e09565b90508073ffffffffffffffffffffffffffffffffffffffff168373ffffffffffffffffffffffffffffffffffffffff1603610857576040517f08c379a000000000000000000000000000000000000000000000000000000000815260040161084e90614746565b60405180910390fd5b8073ffffffffffffffffffffffffffffffffffffffff16610876612cae565b73ffffffffffffffffffffffffffffffffffffffff1614806108a557506108a48161089f612cae565b6124ae565b5b6108e4576040517f08c379a00000000000000000000000000000000000000000000000000000000081526004016108db906147d8565b60405180910390fd5b6108ee8383612cb6565b505050565b6109046108fe612cae565b82612d6f565b610943576040517f08c379a000000000000000000000000000000000000000000000000000000000815260040161093a9061486a565b60405180910390fd5b61094e838383612e04565b505050565b60006008600083815260200190815260200160002060010154905080341461097a57600080fd5b600260086000848152602001908152602001600020600201541461099d57600080fd5b6109a6826130fd565b73ffffffffffffffffffffffffffffffffffffffff163073ffffffffffffffffffffffffffffffffffffffff16146109dd57600080fd5b600015156008600084815260200190815260200160002060040160149054906101000a900460ff16151514610a1157600080fd5b610a24610a1d836130fd565b3384612e04565b60006064600a83610a3591906148b9565b610a3f919061492a565b90506008600084815260200190815260200160002060040160009054906101000a900473ffffffffffffffffffffffffffffffffffffffff1673ffffffffffffffffffffffffffffffffffffffff166108fc829081150290604051600060405180830381858888f19350505050158015610abd573d6000803e3d6000fd5b506008600084815260200190815260200160002060030160009054906101000a900473ffffffffffffffffffffffffffffffffffffffff1673ffffffffffffffffffffffffffffffffffffffff166108fc8284610b1a919061495b565b9081150290604051600060405180830381858888f19350505050158015610b45573d6000803e3d6000fd5b50505050565b7f000000000000000000000000000000000000000000000000000000000000000073ffffffffffffffffffffffffffffffffffffffff163373ffffffffffffffffffffffffffffffffffffffff1614610ba357600080fd5b7f000000000000000000000000000000000000000000000000000000000000000073ffffffffffffffffffffffffffffffffffffffff166108fc829081150290604051600060405180830381858888f19350505050158015610c09573d6000803e3d6000fd5b5050565b803414610c1957600080fd5b600115156008600084815260200190815260200160002060040160149054906101000a900460ff16151514610c4d57600080fd5b60096000838152602001908152602001600020600401548111610c6f57600080fd5b6008600083815260200190815260200160002060030160009054906101000a900473ffffffffffffffffffffffffffffffffffffffff1673ffffffffffffffffffffffffffffffffffffffff163373ffffffffffffffffffffffffffffffffffffffff1603610cdd57600080fd5b4260096000848152602001908152602001600020600201541015610d0057600080fd5b600a600083815260200190815260200160002060405180606001604052808481526020018381526020013373ffffffffffffffffffffffffffffffffffffffff168152509080600181540180825580915050600190039060005260206000209060030201600090919091909150600082015181600001556020820151816001015560408201518160020160006101000a81548173ffffffffffffffffffffffffffffffffffffffff021916908373ffffffffffffffffffffffffffffffffffffffff16021790555050508060096000848152602001908152602001600020600401819055505050565b610e0483838360405180602001604052806000815250611ab9565b505050565b600080610e15836130fd565b9050600073ffffffffffffffffffffffffffffffffffffffff168173ffffffffffffffffffffffffffffffffffffffff1603610e86576040517f08c379a0000000000000000000000000000000000000000000000000000000008152600401610e7d906149db565b60405180910390fd5b80915050919050565b60008073ffffffffffffffffffffffffffffffffffffffff168273ffffffffffffffffffffffffffffffffffffffff1603610eff576040517f08c379a0000000000000000000000000000000000000000000000000000000008152600401610ef690614a6d565b60405180910390fd5b600360008373ffffffffffffffffffffffffffffffffffffffff1673ffffffffffffffffffffffffffffffffffffffff168152602001908152602001600020549050919050565b60606000610f54600761313a565b9050600080610f6233610e8f565b67ffffffffffffffff811115610f7b57610f7a614191565b5b604051908082528060200260200182016040528015610fb457816020015b610fa1613b61565b815260200190600190039081610f995790505b5090506000600190505b600184610fcb9190614a8d565b81101561116257610fdb81613148565b801561101a57503373ffffffffffffffffffffffffffffffffffffffff16611002826130fd565b73ffffffffffffffffffffffffffffffffffffffff16145b1561114f57600860008281526020019081526020016000206040518060c00160405290816000820154815260200160018201548152602001600282015481526020016003820160009054906101000a900473ffffffffffffffffffffffffffffffffffffffff1673ffffffffffffffffffffffffffffffffffffffff1673ffffffffffffffffffffffffffffffffffffffff1681526020016004820160009054906101000a900473ffffffffffffffffffffffffffffffffffffffff1673ffffffffffffffffffffffffffffffffffffffff1673ffffffffffffffffffffffffffffffffffffffff1681526020016004820160149054906101000a900460ff16151515158152505082848151811061113557611134614ac1565b5b6020026020010181905250828061114b90614af0565b9350505b808061115a90614af0565b915050610fbe565b5080935050505090565b6000821161117957600080fd5b6608e1bc9bf04000341461118c57600080fd5b6111966007613189565b60006111a2600761313a565b90506111ae338261319f565b6111b881836131bd565b6111c433306001613261565b6111cf333083612e04565b6040518060c00160405280828152602001848152602001600081526020013373ffffffffffffffffffffffffffffffffffffffff1681526020013373ffffffffffffffffffffffffffffffffffffffff168152602001600015158152506008600083815260200190815260200160002060008201518160000155602082015181600101556040820151816002015560608201518160030160006101000a81548173ffffffffffffffffffffffffffffffffffffffff021916908373ffffffffffffffffffffffffffffffffffffffff16021790555060808201518160040160006101000a81548173ffffffffffffffffffffffffffffffffffffffff021916908373ffffffffffffffffffffffffffffffffffffffff16021790555060a08201518160040160146101000a81548160ff021916908315150217905550905050505050565b6000811161132057600080fd5b6608e1bc9bf04000341461133357600080fd5b61133c826130fd565b73ffffffffffffffffffffffffffffffffffffffff163373ffffffffffffffffffffffffffffffffffffffff161461137357600080fd5b61137e333084612e04565b336008600084815260200190815260200160002060030160006101000a81548173ffffffffffffffffffffffffffffffffffffffff021916908373ffffffffffffffffffffffffffffffffffffffff1602179055508060086000848152602001908152602001600020600101819055505050565b600b54421161140057600080fd5b6000600190505b6001611413600761313a565b61141d9190614a8d565b8110156118b55761142d81613148565b80156114605750600115156008600083815260200190815260200160002060040160149054906101000a900460ff161515145b801561149f57503073ffffffffffffffffffffffffffffffffffffffff16611487826130fd565b73ffffffffffffffffffffffffffffffffffffffff16145b156118a25760096000828152602001908152602001600020600201544211156118a15760005b600a6000838152602001908152602001600020805490508110156117e2576009600083815260200190815260200160002060040154600a6000848152602001908152602001600020828154811061151f5761151e614ac1565b5b906000526020600020906003020160010154036116fb576115a730600a6000858152602001908152602001600020838154811061155f5761155e614ac1565b5b906000526020600020906003020160020160009054906101000a900473ffffffffffffffffffffffffffffffffffffffff1684604051806020016040528060008152506133cd565b60006064600a60096000868152602001908152602001600020600401546115ce91906148b9565b6115d8919061492a565b90506008600084815260200190815260200160002060040160009054906101000a900473ffffffffffffffffffffffffffffffffffffffff1673ffffffffffffffffffffffffffffffffffffffff166108fc829081150290604051600060405180830381858888f19350505050158015611656573d6000803e3d6000fd5b506008600084815260200190815260200160002060030160009054906101000a900473ffffffffffffffffffffffffffffffffffffffff1673ffffffffffffffffffffffffffffffffffffffff166108fc8260096000878152602001908152602001600020600401546116c9919061495b565b9081150290604051600060405180830381858888f193505050501580156116f4573d6000803e3d6000fd5b50506117cf565b600a600083815260200190815260200160002081815481106117205761171f614ac1565b5b906000526020600020906003020160020160009054906101000a900473ffffffffffffffffffffffffffffffffffffffff1673ffffffffffffffffffffffffffffffffffffffff166108fc600a600085815260200190815260200160002083815481106117905761178f614ac1565b5b9060005260206000209060030201600101549081150290604051600060405180830381858888f193505050501580156117cd573d6000803e3d6000fd5b505b80806117da90614af0565b9150506114c5565b5060006008600083815260200190815260200160002060040160146101000a81548160ff021916908315150217905550600960008281526020019081526020016000206004015460086000838152602001908152602001600020600101819055506009600082815260200190815260200160002060008082016000905560018201600090556002820160009055600382016000905560048201600090555050600a600082815260200190815260200160002060006118a09190613bc5565b5b5b80806118ad90614af0565b915050611407565b50610708426118c49190614a8d565b600b81905550565b6060600180546118db906146a3565b80601f0160208091040260200160405190810160405280929190818152602001828054611907906146a3565b80156119545780601f1061192957610100808354040283529160200191611954565b820191906000526020600020905b81548152906001019060200180831161193757829003601f168201915b5050505050905090565b611970611969612cae565b8383613261565b5050565b6008600082815260200190815260200160002060030160009054906101000a900473ffffffffffffffffffffffffffffffffffffffff1673ffffffffffffffffffffffffffffffffffffffff163373ffffffffffffffffffffffffffffffffffffffff16146119e257600080fd5b6119eb816130fd565b73ffffffffffffffffffffffffffffffffffffffff163073ffffffffffffffffffffffffffffffffffffffff1614611a2257600080fd5b6002600860008381526020019081526020016000206002015414611a4557600080fd5b611a60303383604051806020016040528060008152506133cd565b60006008600083815260200190815260200160002060030160006101000a81548173ffffffffffffffffffffffffffffffffffffffff021916908373ffffffffffffffffffffffffffffffffffffffff16021790555050565b611aca611ac4612cae565b83612d6f565b611b09576040517f08c379a0000000000000000000000000000000000000000000000000000000008152600401611b009061486a565b60405180910390fd5b611b15848484846133cd565b50505050565b60607f000000000000000000000000000000000000000000000000000000000000000073ffffffffffffffffffffffffffffffffffffffff163373ffffffffffffffffffffffffffffffffffffffff1614611b7557600080fd5b6000611b81600761313a565b90506000806000600190505b600184611b9a9190614a8d565b811015611bf357611baa81613148565b8015611bcc575060006008600083815260200190815260200160002060020154145b15611be0578280611bdc90614af0565b9350505b8080611beb90614af0565b915050611b8d565b5060008267ffffffffffffffff811115611c1057611c0f614191565b5b604051908082528060200260200182016040528015611c4957816020015b611c36613b61565b815260200190600190039081611c2e5790505b5090506000600190505b600185611c609190614a8d565b811015611dda57611c7081613148565b8015611c92575060006008600083815260200190815260200160002060020154145b15611dc757600860008281526020019081526020016000206040518060c00160405290816000820154815260200160018201548152602001600282015481526020016003820160009054906101000a900473ffffffffffffffffffffffffffffffffffffffff1673ffffffffffffffffffffffffffffffffffffffff1673ffffffffffffffffffffffffffffffffffffffff1681526020016004820160009054906101000a900473ffffffffffffffffffffffffffffffffffffffff1673ffffffffffffffffffffffffffffffffffffffff1673ffffffffffffffffffffffffffffffffffffffff1681526020016004820160149054906101000a900460ff161515151581525050828481518110611dad57611dac614ac1565b5b60200260200101819052508280611dc390614af0565b9350505b8080611dd290614af0565b915050611c53565b508094505050505090565b60606000611df3600761313a565b90506000806000600190505b600184611e0c9190614a8d565b811015611ed757611e1c81613148565b8015611e4f5750600015156008600083815260200190815260200160002060040160149054906101000a900460ff161515145b8015611e8e57503073ffffffffffffffffffffffffffffffffffffffff16611e76826130fd565b73ffffffffffffffffffffffffffffffffffffffff16145b8015611eb0575060026008600083815260200190815260200160002060020154145b15611ec4578280611ec090614af0565b9350505b8080611ecf90614af0565b915050611dff565b5060008267ffffffffffffffff811115611ef457611ef3614191565b5b604051908082528060200260200182016040528015611f2d57816020015b611f1a613b61565b815260200190600190039081611f125790505b5090506000600190505b600185611f449190614a8d565b81101561213057611f5481613148565b8015611f875750600015156008600083815260200190815260200160002060040160149054906101000a900460ff161515145b8015611fc657503073ffffffffffffffffffffffffffffffffffffffff16611fae826130fd565b73ffffffffffffffffffffffffffffffffffffffff16145b8015611fe8575060026008600083815260200190815260200160002060020154145b1561211d57600860008281526020019081526020016000206040518060c00160405290816000820154815260200160018201548152602001600282015481526020016003820160009054906101000a900473ffffffffffffffffffffffffffffffffffffffff1673ffffffffffffffffffffffffffffffffffffffff1673ffffffffffffffffffffffffffffffffffffffff1681526020016004820160009054906101000a900473ffffffffffffffffffffffffffffffffffffffff1673ffffffffffffffffffffffffffffffffffffffff1673ffffffffffffffffffffffffffffffffffffffff1681526020016004820160149054906101000a900460ff16151515158152505082848151811061210357612102614ac1565b5b6020026020010181905250828061211990614af0565b9350505b808061212890614af0565b915050611f37565b508094505050505090565b606061214682612c63565b6000600660008481526020019081526020016000208054612166906146a3565b80601f0160208091040260200160405190810160405280929190818152602001828054612192906146a3565b80156121df5780601f106121b4576101008083540402835291602001916121df565b820191906000526020600020905b8154815290600101906020018083116121c257829003601f168201915b5050505050905060006121f0613429565b90506000815103612205578192505050612248565b60008251111561223a578082604051602001612222929190614b74565b60405160208183030381529060405292505050612248565b61224384613440565b925050505b919050565b600260086000858152602001908152602001600020600201541461227057600080fd5b6000821161227d57600080fd5b6608e1bc9bf04000341461229057600080fd5b6008600084815260200190815260200160002060030160009054906101000a900473ffffffffffffffffffffffffffffffffffffffff1673ffffffffffffffffffffffffffffffffffffffff163373ffffffffffffffffffffffffffffffffffffffff16146122fe57600080fd5b612307836130fd565b73ffffffffffffffffffffffffffffffffffffffff163073ffffffffffffffffffffffffffffffffffffffff161461233e57600080fd5b600181101561234c57600080fd5b60016008600085815260200190815260200160002060040160146101000a81548160ff0219169083151502179055506040518060a0016040528084815260200142815260200162015180836123a191906148b9565b426123ac9190614a8d565b815260200183815260200183815250600960008581526020019081526020016000206000820151816000015560208201518160010155604082015181600201556060820151816003015560808201518160040155905050505050565b6608e1bc9bf0400081565b7f000000000000000000000000000000000000000000000000000000000000000073ffffffffffffffffffffffffffffffffffffffff163373ffffffffffffffffffffffffffffffffffffffff161461246b57600080fd5b8060086000848152602001908152602001600020600201819055505050565b7f000000000000000000000000000000000000000000000000000000000000000081565b6000600560008473ffffffffffffffffffffffffffffffffffffffff1673ffffffffffffffffffffffffffffffffffffffff16815260200190815260200160002060008373ffffffffffffffffffffffffffffffffffffffff1673ffffffffffffffffffffffffffffffffffffffff16815260200190815260200160002060009054906101000a900460ff16905092915050565b60606000612550600761313a565b90506000806000600190505b6001846125699190614a8d565b8110156126795761257981613148565b801561265257503373ffffffffffffffffffffffffffffffffffffffff166008600083815260200190815260200160002060030160009054906101000a900473ffffffffffffffffffffffffffffffffffffffff1673ffffffffffffffffffffffffffffffffffffffff16148061265157503373ffffffffffffffffffffffffffffffffffffffff166008600083815260200190815260200160002060040160009054906101000a900473ffffffffffffffffffffffffffffffffffffffff1673ffffffffffffffffffffffffffffffffffffffff16145b5b1561266657828061266290614af0565b9350505b808061267190614af0565b91505061255c565b5060008267ffffffffffffffff81111561269657612695614191565b5b6040519080825280602002602001820160405280156126cf57816020015b6126bc613b61565b8152602001906001900390816126b45790505b5090506000600190505b6001856126e69190614a8d565b811015612917576126f681613148565b80156127cf57503373ffffffffffffffffffffffffffffffffffffffff166008600083815260200190815260200160002060030160009054906101000a900473ffffffffffffffffffffffffffffffffffffffff1673ffffffffffffffffffffffffffffffffffffffff1614806127ce57503373ffffffffffffffffffffffffffffffffffffffff166008600083815260200190815260200160002060040160009054906101000a900473ffffffffffffffffffffffffffffffffffffffff1673ffffffffffffffffffffffffffffffffffffffff16145b5b1561290457600860008281526020019081526020016000206040518060c00160405290816000820154815260200160018201548152602001600282015481526020016003820160009054906101000a900473ffffffffffffffffffffffffffffffffffffffff1673ffffffffffffffffffffffffffffffffffffffff1673ffffffffffffffffffffffffffffffffffffffff1681526020016004820160009054906101000a900473ffffffffffffffffffffffffffffffffffffffff1673ffffffffffffffffffffffffffffffffffffffff1673ffffffffffffffffffffffffffffffffffffffff1681526020016004820160149054906101000a900460ff1615151515815250508284815181106128ea576128e9614ac1565b5b6020026020010181905250828061290090614af0565b9350505b808061290f90614af0565b9150506126d9565b508094505050505090565b60606000612930600761313a565b90506000806000600190505b6001846129499190614a8d565b8110156129f25761295981613148565b801561298c5750600115156008600083815260200190815260200160002060040160149054906101000a900460ff161515145b80156129cb57503073ffffffffffffffffffffffffffffffffffffffff166129b3826130fd565b73ffffffffffffffffffffffffffffffffffffffff16145b156129df5782806129db90614af0565b9350505b80806129ea90614af0565b91505061293c565b5060008267ffffffffffffffff811115612a0f57612a0e614191565b5b604051908082528060200260200182016040528015612a4857816020015b612a35613be9565b815260200190600190039081612a2d5790505b5090506000600190505b600185612a5f9190614a8d565b811015612b7657612a6f81613148565b8015612aa25750600115156008600083815260200190815260200160002060040160149054906101000a900460ff161515145b8015612ae157503073ffffffffffffffffffffffffffffffffffffffff16612ac9826130fd565b73ffffffffffffffffffffffffffffffffffffffff16145b15612b6357600960008281526020019081526020016000206040518060a001604052908160008201548152602001600182015481526020016002820154815260200160038201548152602001600482015481525050828481518110612b4957612b48614ac1565b5b60200260200101819052508280612b5f90614af0565b9350505b8080612b6e90614af0565b915050612a52565b508094505050505090565b60007f80ac58cd000000000000000000000000000000000000000000000000000000007bffffffffffffffffffffffffffffffffffffffffffffffffffffffff1916827bffffffffffffffffffffffffffffffffffffffffffffffffffffffff19161480612c4c57507f5b5e139f000000000000000000000000000000000000000000000000000000007bffffffffffffffffffffffffffffffffffffffffffffffffffffffff1916827bffffffffffffffffffffffffffffffffffffffffffffffffffffffff1916145b80612c5c5750612c5b826134a8565b5b9050919050565b612c6c81613148565b612cab576040517f08c379a0000000000000000000000000000000000000000000000000000000008152600401612ca2906149db565b60405180910390fd5b50565b600033905090565b816004600083815260200190815260200160002060006101000a81548173ffffffffffffffffffffffffffffffffffffffff021916908373ffffffffffffffffffffffffffffffffffffffff160217905550808273ffffffffffffffffffffffffffffffffffffffff16612d2983610e09565b73ffffffffffffffffffffffffffffffffffffffff167f8c5be1e5ebec7d5bd14f71427d1e84f3dd0314c0f7b2291e5b200ac8c7c3b92560405160405180910390a45050565b600080612d7b83610e09565b90508073ffffffffffffffffffffffffffffffffffffffff168473ffffffffffffffffffffffffffffffffffffffff161480612dbd5750612dbc81856124ae565b5b80612dfb57508373ffffffffffffffffffffffffffffffffffffffff16612de384610796565b73ffffffffffffffffffffffffffffffffffffffff16145b91505092915050565b8273ffffffffffffffffffffffffffffffffffffffff16612e2482610e09565b73ffffffffffffffffffffffffffffffffffffffff1614612e7a576040517f08c379a0000000000000000000000000000000000000000000000000000000008152600401612e7190614c0a565b60405180910390fd5b600073ffffffffffffffffffffffffffffffffffffffff168273ffffffffffffffffffffffffffffffffffffffff1603612ee9576040517f08c379a0000000000000000000000000000000000000000000000000000000008152600401612ee090614c9c565b60405180910390fd5b612ef68383836001613512565b8273ffffffffffffffffffffffffffffffffffffffff16612f1682610e09565b73ffffffffffffffffffffffffffffffffffffffff1614612f6c576040517f08c379a0000000000000000000000000000000000000000000000000000000008152600401612f6390614c0a565b60405180910390fd5b6004600082815260200190815260200160002060006101000a81549073ffffffffffffffffffffffffffffffffffffffff02191690556001600360008573ffffffffffffffffffffffffffffffffffffffff1673ffffffffffffffffffffffffffffffffffffffff168152602001908152602001600020600082825403925050819055506001600360008473ffffffffffffffffffffffffffffffffffffffff1673ffffffffffffffffffffffffffffffffffffffff16815260200190815260200160002060008282540192505081905550816002600083815260200190815260200160002060006101000a81548173ffffffffffffffffffffffffffffffffffffffff021916908373ffffffffffffffffffffffffffffffffffffffff160217905550808273ffffffffffffffffffffffffffffffffffffffff168473ffffffffffffffffffffffffffffffffffffffff167fddf252ad1be2c89b69c2b068fc378daa952ba7f163c4a11628f55a4df523b3ef60405160405180910390a46130f88383836001613518565b505050565b60006002600083815260200190815260200160002060009054906101000a900473ffffffffffffffffffffffffffffffffffffffff169050919050565b600081600001549050919050565b60008073ffffffffffffffffffffffffffffffffffffffff1661316a836130fd565b73ffffffffffffffffffffffffffffffffffffffff1614159050919050565b6001816000016000828254019250508190555050565b6131b982826040518060200160405280600081525061351e565b5050565b6131c682613148565b613205576040517f08c379a00000000000000000000000000000000000000000000000000000000081526004016131fc90614d2e565b60405180910390fd5b806006600084815260200190815260200160002090816132259190614efa565b507ff8e1a15aba9398e019f0b49df1a4fde98ee17ae345cb5f6b5e2c27f5033e8ce7826040516132559190613fe1565b60405180910390a15050565b8173ffffffffffffffffffffffffffffffffffffffff168373ffffffffffffffffffffffffffffffffffffffff16036132cf576040517f08c379a00000000000000000000000000000000000000000000000000000000081526004016132c690615018565b60405180910390fd5b80600560008573ffffffffffffffffffffffffffffffffffffffff1673ffffffffffffffffffffffffffffffffffffffff16815260200190815260200160002060008473ffffffffffffffffffffffffffffffffffffffff1673ffffffffffffffffffffffffffffffffffffffff16815260200190815260200160002060006101000a81548160ff0219169083151502179055508173ffffffffffffffffffffffffffffffffffffffff168373ffffffffffffffffffffffffffffffffffffffff167f17307eab39ab6107e8899845ad3d59bd9653f200f220920489ca2b5937696c31836040516133c09190613d1a565b60405180910390a3505050565b6133d8848484612e04565b6133e484848484613579565b613423576040517f08c379a000000000000000000000000000000000000000000000000000000000815260040161341a906150aa565b60405180910390fd5b50505050565b606060405180602001604052806000815250905090565b606061344b82612c63565b6000613455613429565b9050600081511161347557604051806020016040528060008152506134a0565b8061347f84613700565b604051602001613490929190614b74565b6040516020818303038152906040525b915050919050565b60007f01ffc9a7000000000000000000000000000000000000000000000000000000007bffffffffffffffffffffffffffffffffffffffffffffffffffffffff1916827bffffffffffffffffffffffffffffffffffffffffffffffffffffffff1916149050919050565b50505050565b50505050565b61352883836137ce565b6135356000848484613579565b613574576040517f08c379a000000000000000000000000000000000000000000000000000000000815260040161356b906150aa565b60405180910390fd5b505050565b600061359a8473ffffffffffffffffffffffffffffffffffffffff166139eb565b156136f3578373ffffffffffffffffffffffffffffffffffffffff1663150b7a026135c3612cae565b8786866040518563ffffffff1660e01b81526004016135e5949392919061511f565b6020604051808303816000875af192505050801561362157506040513d601f19601f8201168201806040525081019061361e9190615180565b60015b6136a3573d8060008114613651576040519150601f19603f3d011682016040523d82523d6000602084013e613656565b606091505b50600081510361369b576040517f08c379a0000000000000000000000000000000000000000000000000000000008152600401613692906150aa565b60405180910390fd5b805181602001fd5b63150b7a0260e01b7bffffffffffffffffffffffffffffffffffffffffffffffffffffffff1916817bffffffffffffffffffffffffffffffffffffffffffffffffffffffff1916149150506136f8565b600190505b949350505050565b60606000600161370f84613a0e565b01905060008167ffffffffffffffff81111561372e5761372d614191565b5b6040519080825280601f01601f1916602001820160405280156137605781602001600182028036833780820191505090505b509050600082602001820190505b6001156137c3578080600190039150507f3031323334353637383961626364656600000000000000000000000000000000600a86061a8153600a85816137b7576137b66148fb565b5b0494506000850361376e575b819350505050919050565b600073ffffffffffffffffffffffffffffffffffffffff168273ffffffffffffffffffffffffffffffffffffffff160361383d576040517f08c379a0000000000000000000000000000000000000000000000000000000008152600401613834906151f9565b60405180910390fd5b61384681613148565b15613886576040517f08c379a000000000000000000000000000000000000000000000000000000000815260040161387d90615265565b60405180910390fd5b613894600083836001613512565b61389d81613148565b156138dd576040517f08c379a00000000000000000000000000000000000000000000000000000000081526004016138d490615265565b60405180910390fd5b6001600360008473ffffffffffffffffffffffffffffffffffffffff1673ffffffffffffffffffffffffffffffffffffffff16815260200190815260200160002060008282540192505081905550816002600083815260200190815260200160002060006101000a81548173ffffffffffffffffffffffffffffffffffffffff021916908373ffffffffffffffffffffffffffffffffffffffff160217905550808273ffffffffffffffffffffffffffffffffffffffff16600073ffffffffffffffffffffffffffffffffffffffff167fddf252ad1be2c89b69c2b068fc378daa952ba7f163c4a11628f55a4df523b3ef60405160405180910390a46139e7600083836001613518565b5050565b6000808273ffffffffffffffffffffffffffffffffffffffff163b119050919050565b600080600090507a184f03e93ff9f4daa797ed6e38ed64bf6a1f0100000000000000008310613a6c577a184f03e93ff9f4daa797ed6e38ed64bf6a1f0100000000000000008381613a6257613a616148fb565b5b0492506040810190505b6d04ee2d6d415b85acef81000000008310613aa9576d04ee2d6d415b85acef81000000008381613a9f57613a9e6148fb565b5b0492506020810190505b662386f26fc100008310613ad857662386f26fc100008381613ace57613acd6148fb565b5b0492506010810190505b6305f5e1008310613b01576305f5e1008381613af757613af66148fb565b5b0492506008810190505b6127108310613b26576127108381613b1c57613b1b6148fb565b5b0492506004810190505b60648310613b495760648381613b3f57613b3e6148fb565b5b0492506002810190505b600a8310613b58576001810190505b80915050919050565b6040518060c00160405280600081526020016000815260200160008152602001600073ffffffffffffffffffffffffffffffffffffffff168152602001600073ffffffffffffffffffffffffffffffffffffffff1681526020016000151581525090565b5080546000825560030290600052602060002090810190613be69190613c18565b50565b6040518060a0016040528060008152602001600081526020016000815260200160008152602001600081525090565b5b80821115613c625760008082016000905560018201600090556002820160006101000a81549073ffffffffffffffffffffffffffffffffffffffff021916905550600301613c19565b5090565b6000604051905090565b600080fd5b600080fd5b60007fffffffff0000000000000000000000000000000000000000000000000000000082169050919050565b613caf81613c7a565b8114613cba57600080fd5b50565b600081359050613ccc81613ca6565b92915050565b600060208284031215613ce857613ce7613c70565b5b6000613cf684828501613cbd565b91505092915050565b60008115159050919050565b613d1481613cff565b82525050565b6000602082019050613d2f6000830184613d0b565b92915050565b600081519050919050565b600082825260208201905092915050565b60005b83811015613d6f578082015181840152602081019050613d54565b60008484015250505050565b6000601f19601f8301169050919050565b6000613d9782613d35565b613da18185613d40565b9350613db1818560208601613d51565b613dba81613d7b565b840191505092915050565b60006020820190508181036000830152613ddf8184613d8c565b905092915050565b6000819050919050565b613dfa81613de7565b8114613e0557600080fd5b50565b600081359050613e1781613df1565b92915050565b600060208284031215613e3357613e32613c70565b5b6000613e4184828501613e08565b91505092915050565b600073ffffffffffffffffffffffffffffffffffffffff82169050919050565b6000613e7582613e4a565b9050919050565b613e8581613e6a565b82525050565b6000602082019050613ea06000830184613e7c565b92915050565b613eaf81613e6a565b8114613eba57600080fd5b50565b600081359050613ecc81613ea6565b92915050565b60008060408385031215613ee957613ee8613c70565b5b6000613ef785828601613ebd565b9250506020613f0885828601613e08565b9150509250929050565b600080600060608486031215613f2b57613f2a613c70565b5b6000613f3986828701613ebd565b9350506020613f4a86828701613ebd565b9250506040613f5b86828701613e08565b9150509250925092565b60008060408385031215613f7c57613f7b613c70565b5b6000613f8a85828601613e08565b9250506020613f9b85828601613e08565b9150509250929050565b600060208284031215613fbb57613fba613c70565b5b6000613fc984828501613ebd565b91505092915050565b613fdb81613de7565b82525050565b6000602082019050613ff66000830184613fd2565b92915050565b600081519050919050565b600082825260208201905092915050565b6000819050602082019050919050565b61403181613de7565b82525050565b600061404282613e4a565b9050919050565b61405281614037565b82525050565b61406181613cff565b82525050565b60c08201600082015161407d6000850182614028565b5060208201516140906020850182614028565b5060408201516140a36040850182614028565b5060608201516140b66060850182614049565b5060808201516140c96080850182614049565b5060a08201516140dc60a0850182614058565b50505050565b60006140ee8383614067565b60c08301905092915050565b6000602082019050919050565b600061411282613ffc565b61411c8185614007565b935061412783614018565b8060005b8381101561415857815161413f88826140e2565b975061414a836140fa565b92505060018101905061412b565b5085935050505092915050565b6000602082019050818103600083015261417f8184614107565b905092915050565b600080fd5b600080fd5b7f4e487b7100000000000000000000000000000000000000000000000000000000600052604160045260246000fd5b6141c982613d7b565b810181811067ffffffffffffffff821117156141e8576141e7614191565b5b80604052505050565b60006141fb613c66565b905061420782826141c0565b919050565b600067ffffffffffffffff82111561422757614226614191565b5b61423082613d7b565b9050602081019050919050565b82818337600083830152505050565b600061425f61425a8461420c565b6141f1565b90508281526020810184848401111561427b5761427a61418c565b5b61428684828561423d565b509392505050565b600082601f8301126142a3576142a2614187565b5b81356142b384826020860161424c565b91505092915050565b600080604083850312156142d3576142d2613c70565b5b60006142e185828601613e08565b925050602083013567ffffffffffffffff81111561430257614301613c75565b5b61430e8582860161428e565b9150509250929050565b61432181613cff565b811461432c57600080fd5b50565b60008135905061433e81614318565b92915050565b6000806040838503121561435b5761435a613c70565b5b600061436985828601613ebd565b925050602061437a8582860161432f565b9150509250929050565b600067ffffffffffffffff82111561439f5761439e614191565b5b6143a882613d7b565b9050602081019050919050565b60006143c86143c384614384565b6141f1565b9050828152602081018484840111156143e4576143e361418c565b5b6143ef84828561423d565b509392505050565b600082601f83011261440c5761440b614187565b5b813561441c8482602086016143b5565b91505092915050565b6000806000806080858703121561443f5761443e613c70565b5b600061444d87828801613ebd565b945050602061445e87828801613ebd565b935050604061446f87828801613e08565b925050606085013567ffffffffffffffff8111156144905761448f613c75565b5b61449c878288016143f7565b91505092959194509250565b6000806000606084860312156144c1576144c0613c70565b5b60006144cf86828701613e08565b93505060206144e086828701613e08565b92505060406144f186828701613e08565b9150509250925092565b6000806040838503121561451257614511613c70565b5b600061452085828601613ebd565b925050602061453185828601613ebd565b9150509250929050565b600081519050919050565b600082825260208201905092915050565b6000819050602082019050919050565b60a08201600082015161457d6000850182614028565b5060208201516145906020850182614028565b5060408201516145a36040850182614028565b5060608201516145b66060850182614028565b5060808201516145c96080850182614028565b50505050565b60006145db8383614567565b60a08301905092915050565b6000602082019050919050565b60006145ff8261453b565b6146098185614546565b935061461483614557565b8060005b8381101561464557815161462c88826145cf565b9750614637836145e7565b925050600181019050614618565b5085935050505092915050565b6000602082019050818103600083015261466c81846145f4565b905092915050565b7f4e487b7100000000000000000000000000000000000000000000000000000000600052602260045260246000fd5b600060028204905060018216806146bb57607f821691505b6020821081036146ce576146cd614674565b5b50919050565b7f4552433732313a20617070726f76616c20746f2063757272656e74206f776e6560008201527f7200000000000000000000000000000000000000000000000000000000000000602082015250565b6000614730602183613d40565b915061473b826146d4565b604082019050919050565b6000602082019050818103600083015261475f81614723565b9050919050565b7f4552433732313a20617070726f76652063616c6c6572206973206e6f7420746f60008201527f6b656e206f776e6572206f7220617070726f76656420666f7220616c6c000000602082015250565b60006147c2603d83613d40565b91506147cd82614766565b604082019050919050565b600060208201905081810360008301526147f1816147b5565b9050919050565b7f4552433732313a2063616c6c6572206973206e6f7420746f6b656e206f776e6560008201527f72206f7220617070726f76656400000000000000000000000000000000000000602082015250565b6000614854602d83613d40565b915061485f826147f8565b604082019050919050565b6000602082019050818103600083015261488381614847565b9050919050565b7f4e487b7100000000000000000000000000000000000000000000000000000000600052601160045260246000fd5b60006148c482613de7565b91506148cf83613de7565b92508282026148dd81613de7565b915082820484148315176148f4576148f361488a565b5b5092915050565b7f4e487b7100000000000000000000000000000000000000000000000000000000600052601260045260246000fd5b600061493582613de7565b915061494083613de7565b9250826149505761494f6148fb565b5b828204905092915050565b600061496682613de7565b915061497183613de7565b92508282039050818111156149895761498861488a565b5b92915050565b7f4552433732313a20696e76616c696420746f6b656e2049440000000000000000600082015250565b60006149c5601883613d40565b91506149d08261498f565b602082019050919050565b600060208201905081810360008301526149f4816149b8565b9050919050565b7f4552433732313a2061646472657373207a65726f206973206e6f74206120766160008201527f6c6964206f776e65720000000000000000000000000000000000000000000000602082015250565b6000614a57602983613d40565b9150614a62826149fb565b604082019050919050565b60006020820190508181036000830152614a8681614a4a565b9050919050565b6000614a9882613de7565b9150614aa383613de7565b9250828201905080821115614abb57614aba61488a565b5b92915050565b7f4e487b7100000000000000000000000000000000000000000000000000000000600052603260045260246000fd5b6000614afb82613de7565b91507fffffffffffffffffffffffffffffffffffffffffffffffffffffffffffffffff8203614b2d57614b2c61488a565b5b600182019050919050565b600081905092915050565b6000614b4e82613d35565b614b588185614b38565b9350614b68818560208601613d51565b80840191505092915050565b6000614b808285614b43565b9150614b8c8284614b43565b91508190509392505050565b7f4552433732313a207472616e736665722066726f6d20696e636f72726563742060008201527f6f776e6572000000000000000000000000000000000000000000000000000000602082015250565b6000614bf4602583613d40565b9150614bff82614b98565b604082019050919050565b60006020820190508181036000830152614c2381614be7565b9050919050565b7f4552433732313a207472616e7366657220746f20746865207a65726f2061646460008201527f7265737300000000000000000000000000000000000000000000000000000000602082015250565b6000614c86602483613d40565b9150614c9182614c2a565b604082019050919050565b60006020820190508181036000830152614cb581614c79565b9050919050565b7f45524337323155524953746f726167653a2055524920736574206f66206e6f6e60008201527f6578697374656e7420746f6b656e000000000000000000000000000000000000602082015250565b6000614d18602e83613d40565b9150614d2382614cbc565b604082019050919050565b60006020820190508181036000830152614d4781614d0b565b9050919050565b60008190508160005260206000209050919050565b60006020601f8301049050919050565b600082821b905092915050565b600060088302614db07fffffffffffffffffffffffffffffffffffffffffffffffffffffffffffffffff82614d73565b614dba8683614d73565b95508019841693508086168417925050509392505050565b6000819050919050565b6000614df7614df2614ded84613de7565b614dd2565b613de7565b9050919050565b6000819050919050565b614e1183614ddc565b614e25614e1d82614dfe565b848454614d80565b825550505050565b600090565b614e3a614e2d565b614e45818484614e08565b505050565b5b81811015614e6957614e5e600082614e32565b600181019050614e4b565b5050565b601f821115614eae57614e7f81614d4e565b614e8884614d63565b81016020851015614e97578190505b614eab614ea385614d63565b830182614e4a565b50505b505050565b600082821c905092915050565b6000614ed160001984600802614eb3565b1980831691505092915050565b6000614eea8383614ec0565b9150826002028217905092915050565b614f0382613d35565b67ffffffffffffffff811115614f1c57614f1b614191565b5b614f2682546146a3565b614f31828285614e6d565b600060209050601f831160018114614f645760008415614f52578287015190505b614f5c8582614ede565b865550614fc4565b601f198416614f7286614d4e565b60005b82811015614f9a57848901518255600182019150602085019450602081019050614f75565b86831015614fb75784890151614fb3601f891682614ec0565b8355505b6001600288020188555050505b505050505050565b7f4552433732313a20617070726f766520746f2063616c6c657200000000000000600082015250565b6000615002601983613d40565b915061500d82614fcc565b602082019050919050565b6000602082019050818103600083015261503181614ff5565b9050919050565b7f4552433732313a207472616e7366657220746f206e6f6e20455243373231526560008201527f63656976657220696d706c656d656e7465720000000000000000000000000000602082015250565b6000615094603283613d40565b915061509f82615038565b604082019050919050565b600060208201905081810360008301526150c381615087565b9050919050565b600081519050919050565b600082825260208201905092915050565b60006150f1826150ca565b6150fb81856150d5565b935061510b818560208601613d51565b61511481613d7b565b840191505092915050565b60006080820190506151346000830187613e7c565b6151416020830186613e7c565b61514e6040830185613fd2565b818103606083015261516081846150e6565b905095945050505050565b60008151905061517a81613ca6565b92915050565b60006020828403121561519657615195613c70565b5b60006151a48482850161516b565b91505092915050565b7f4552433732313a206d696e7420746f20746865207a65726f2061646472657373600082015250565b60006151e3602083613d40565b91506151ee826151ad565b602082019050919050565b60006020820190508181036000830152615212816151d6565b9050919050565b7f4552433732313a20746f6b656e20616c7265616479206d696e74656400000000600082015250565b600061524f601c83613d40565b915061525a82615219565b602082019050919050565b6000602082019050818103600083015261527e81615242565b905091905056fea26469706673582212205182fda4220a8f6018de17fc944880925b02d9a79f159e809b491cab67b55f4c64736f6c63430008130033",
  "linkReferences": {},
  "deployedLinkReferences": {}
}